{
  "_format": "hh-sol-artifact-1",
  "contractName": "MyToken",
  "sourceName": "contracts/MyToken.sol",
  "abi": [
    {
      "inputs": [],
      "stateMutability": "nonpayable",
      "type": "constructor"
    },
    {
      "anonymous": false,
      "inputs": [
        {
          "indexed": true,
          "internalType": "address",
          "name": "account",
          "type": "address"
        },
        {
          "indexed": true,
          "internalType": "address",
          "name": "operator",
          "type": "address"
        },
        {
          "indexed": false,
          "internalType": "bool",
          "name": "approved",
          "type": "bool"
        }
      ],
      "name": "ApprovalForAll",
      "type": "event"
    },
    {
      "anonymous": false,
      "inputs": [
        {
          "indexed": true,
          "internalType": "address",
          "name": "previousOwner",
          "type": "address"
        },
        {
          "indexed": true,
          "internalType": "address",
          "name": "newOwner",
          "type": "address"
        }
      ],
      "name": "OwnershipTransferred",
      "type": "event"
    },
    {
      "anonymous": false,
      "inputs": [
        {
          "indexed": true,
          "internalType": "address",
          "name": "operator",
          "type": "address"
        },
        {
          "indexed": true,
          "internalType": "address",
          "name": "from",
          "type": "address"
        },
        {
          "indexed": true,
          "internalType": "address",
          "name": "to",
          "type": "address"
        },
        {
          "indexed": false,
          "internalType": "uint256[]",
          "name": "ids",
          "type": "uint256[]"
        },
        {
          "indexed": false,
          "internalType": "uint256[]",
          "name": "values",
          "type": "uint256[]"
        }
      ],
      "name": "TransferBatch",
      "type": "event"
    },
    {
      "anonymous": false,
      "inputs": [
        {
          "indexed": true,
          "internalType": "address",
          "name": "operator",
          "type": "address"
        },
        {
          "indexed": true,
          "internalType": "address",
          "name": "from",
          "type": "address"
        },
        {
          "indexed": true,
          "internalType": "address",
          "name": "to",
          "type": "address"
        },
        {
          "indexed": false,
          "internalType": "uint256",
          "name": "id",
          "type": "uint256"
        },
        {
          "indexed": false,
          "internalType": "uint256",
          "name": "value",
          "type": "uint256"
        }
      ],
      "name": "TransferSingle",
      "type": "event"
    },
    {
      "anonymous": false,
      "inputs": [
        {
          "indexed": false,
          "internalType": "string",
          "name": "value",
          "type": "string"
        },
        {
          "indexed": true,
          "internalType": "uint256",
          "name": "id",
          "type": "uint256"
        }
      ],
      "name": "URI",
      "type": "event"
    },
    {
      "stateMutability": "payable",
      "type": "fallback"
    },
    {
      "inputs": [
        {
          "internalType": "address",
          "name": "account",
          "type": "address"
        },
        {
          "internalType": "uint256",
          "name": "id",
          "type": "uint256"
        }
      ],
      "name": "balanceOf",
      "outputs": [
        {
          "internalType": "uint256",
          "name": "",
          "type": "uint256"
        }
      ],
      "stateMutability": "view",
      "type": "function"
    },
    {
      "inputs": [
        {
          "internalType": "address[]",
          "name": "accounts",
          "type": "address[]"
        },
        {
          "internalType": "uint256[]",
          "name": "ids",
          "type": "uint256[]"
        }
      ],
      "name": "balanceOfBatch",
      "outputs": [
        {
          "internalType": "uint256[]",
          "name": "",
          "type": "uint256[]"
        }
      ],
      "stateMutability": "view",
      "type": "function"
    },
    {
      "inputs": [],
      "name": "hello",
      "outputs": [
        {
          "internalType": "string",
          "name": "",
          "type": "string"
        }
      ],
      "stateMutability": "pure",
      "type": "function"
    },
    {
      "inputs": [
        {
          "internalType": "address",
          "name": "account",
          "type": "address"
        },
        {
          "internalType": "address",
          "name": "operator",
          "type": "address"
        }
      ],
      "name": "isApprovedForAll",
      "outputs": [
        {
          "internalType": "bool",
          "name": "",
          "type": "bool"
        }
      ],
      "stateMutability": "view",
      "type": "function"
    },
    {
      "inputs": [
        {
          "internalType": "uint256",
          "name": "id",
          "type": "uint256"
        },
        {
          "internalType": "uint256",
          "name": "amount",
          "type": "uint256"
        }
      ],
      "name": "mint",
      "outputs": [],
      "stateMutability": "payable",
      "type": "function"
    },
    {
      "inputs": [
        {
          "internalType": "address",
          "name": "to",
          "type": "address"
        },
        {
          "internalType": "uint256[]",
          "name": "ids",
          "type": "uint256[]"
        },
        {
          "internalType": "uint256[]",
          "name": "amounts",
          "type": "uint256[]"
        },
        {
          "internalType": "bytes",
          "name": "data",
          "type": "bytes"
        }
      ],
      "name": "mintBatch",
      "outputs": [],
      "stateMutability": "nonpayable",
      "type": "function"
    },
    {
      "inputs": [],
      "name": "owner",
      "outputs": [
        {
          "internalType": "address",
          "name": "",
          "type": "address"
        }
      ],
      "stateMutability": "view",
      "type": "function"
    },
    {
      "inputs": [],
      "name": "renounceOwnership",
      "outputs": [],
      "stateMutability": "nonpayable",
      "type": "function"
    },
    {
      "inputs": [
        {
          "internalType": "address",
          "name": "from",
          "type": "address"
        },
        {
          "internalType": "address",
          "name": "to",
          "type": "address"
        },
        {
          "internalType": "uint256[]",
          "name": "ids",
          "type": "uint256[]"
        },
        {
          "internalType": "uint256[]",
          "name": "amounts",
          "type": "uint256[]"
        },
        {
          "internalType": "bytes",
          "name": "data",
          "type": "bytes"
        }
      ],
      "name": "safeBatchTransferFrom",
      "outputs": [],
      "stateMutability": "nonpayable",
      "type": "function"
    },
    {
      "inputs": [
        {
          "internalType": "address",
          "name": "from",
          "type": "address"
        },
        {
          "internalType": "address",
          "name": "to",
          "type": "address"
        },
        {
          "internalType": "uint256",
          "name": "id",
          "type": "uint256"
        },
        {
          "internalType": "uint256",
          "name": "amount",
          "type": "uint256"
        },
        {
          "internalType": "bytes",
          "name": "data",
          "type": "bytes"
        }
      ],
      "name": "safeTransferFrom",
      "outputs": [],
      "stateMutability": "nonpayable",
      "type": "function"
    },
    {
      "inputs": [
        {
          "internalType": "address",
          "name": "operator",
          "type": "address"
        },
        {
          "internalType": "bool",
          "name": "approved",
          "type": "bool"
        }
      ],
      "name": "setApprovalForAll",
      "outputs": [],
      "stateMutability": "nonpayable",
      "type": "function"
    },
    {
      "inputs": [
        {
          "internalType": "uint256",
          "name": "_price",
          "type": "uint256"
        }
      ],
      "name": "setPrice",
      "outputs": [],
      "stateMutability": "nonpayable",
      "type": "function"
    },
    {
      "inputs": [
        {
          "internalType": "string",
          "name": "newuri",
          "type": "string"
        }
      ],
      "name": "setURI",
      "outputs": [],
      "stateMutability": "nonpayable",
      "type": "function"
    },
    {
      "inputs": [
        {
          "internalType": "bytes4",
          "name": "interfaceId",
          "type": "bytes4"
        }
      ],
      "name": "supportsInterface",
      "outputs": [
        {
          "internalType": "bool",
          "name": "",
          "type": "bool"
        }
      ],
      "stateMutability": "view",
      "type": "function"
    },
    {
      "inputs": [
        {
          "internalType": "address",
          "name": "newOwner",
          "type": "address"
        }
      ],
      "name": "transferOwnership",
      "outputs": [],
      "stateMutability": "nonpayable",
      "type": "function"
    },
    {
      "inputs": [
        {
          "internalType": "uint256",
          "name": "_tokenId",
          "type": "uint256"
        }
      ],
      "name": "uri",
      "outputs": [
        {
          "internalType": "string",
          "name": "",
          "type": "string"
        }
      ],
      "stateMutability": "pure",
      "type": "function"
    },
    {
      "inputs": [],
      "name": "withdraw",
      "outputs": [],
      "stateMutability": "nonpayable",
      "type": "function"
    },
    {
      "stateMutability": "payable",
      "type": "receive"
    }
  ],
  "bytecode": "0x60806040523480156200001157600080fd5b506040518060800160405280605a815260200162004942605a91396200003d816200010660201b60201c565b506200005e620000526200012260201b60201c565b6200012a60201b60201c565b62000083336000600160405180602001604052806000815250620001f060201b60201c565b620000a8336001606460405180602001604052806000815250620001f060201b60201c565b620000cd336002603260405180602001604052806000815250620001f060201b60201c565b620000f2336003601960405180602001604052806000815250620001f060201b60201c565b66038d7ea4c6800060048190555062000dfe565b80600290805190602001906200011e929190620006b3565b5050565b600033905090565b6000600360009054906101000a900473ffffffffffffffffffffffffffffffffffffffff16905081600360006101000a81548173ffffffffffffffffffffffffffffffffffffffff021916908373ffffffffffffffffffffffffffffffffffffffff1602179055508173ffffffffffffffffffffffffffffffffffffffff168173ffffffffffffffffffffffffffffffffffffffff167f8be0079c531659141344cd1fd0a4f28419497f9722a3daafe3b4186f6b6457e060405160405180910390a35050565b600073ffffffffffffffffffffffffffffffffffffffff168473ffffffffffffffffffffffffffffffffffffffff16141562000263576040517f08c379a00000000000000000000000000000000000000000000000000000000081526004016200025a906200098b565b60405180910390fd5b6000620002756200012260201b60201c565b9050620002ae816000876200029088620003b560201b60201c565b620002a188620003b560201b60201c565b876200047e60201b60201c565b8260008086815260200190815260200160002060008773ffffffffffffffffffffffffffffffffffffffff1673ffffffffffffffffffffffffffffffffffffffff16815260200190815260200160002060008282546200030f919062000a1c565b925050819055508473ffffffffffffffffffffffffffffffffffffffff16600073ffffffffffffffffffffffffffffffffffffffff168273ffffffffffffffffffffffffffffffffffffffff167fc3d58168c5ae7397731d063d5bbf3d657854427343f4c083240f7aacaa2d0f6287876040516200038f929190620009ad565b60405180910390a4620003ae816000878787876200048660201b60201c565b5050505050565b60606000600167ffffffffffffffff811115620003fb577f4e487b7100000000000000000000000000000000000000000000000000000000600052604160045260246000fd5b6040519080825280602002602001820160405280156200042a5781602001602082028036833780820191505090505b509050828160008151811062000469577f4e487b7100000000000000000000000000000000000000000000000000000000600052603260045260246000fd5b60200260200101818152505080915050919050565b505050505050565b620004b28473ffffffffffffffffffffffffffffffffffffffff166200069060201b62000e991760201c565b1562000688578373ffffffffffffffffffffffffffffffffffffffff1663f23a6e6187878686866040518663ffffffff1660e01b8152600401620004fb959493929190620008bf565b602060405180830381600087803b1580156200051657600080fd5b505af19250505080156200054a57506040513d601f19601f820116820180604052508101906200054791906200077a565b60015b620005fc576200055962000c12565b806308c379a01415620005bd57506200057162000d42565b806200057e5750620005bf565b806040517f08c379a0000000000000000000000000000000000000000000000000000000008152600401620005b4919062000923565b60405180910390fd5b505b6040517f08c379a0000000000000000000000000000000000000000000000000000000008152600401620005f39062000947565b60405180910390fd5b63f23a6e6160e01b7bffffffffffffffffffffffffffffffffffffffffffffffffffffffff1916817bffffffffffffffffffffffffffffffffffffffffffffffffffffffff19161462000686576040517f08c379a00000000000000000000000000000000000000000000000000000000081526004016200067d9062000969565b60405180910390fd5b505b505050505050565b6000808273ffffffffffffffffffffffffffffffffffffffff163b119050919050565b828054620006c19062000b19565b90600052602060002090601f016020900481019282620006e5576000855562000731565b82601f106200070057805160ff191683800117855562000731565b8280016001018555821562000731579182015b828111156200073057825182559160200191906001019062000713565b5b50905062000740919062000744565b5090565b5b808211156200075f57600081600090555060010162000745565b5090565b600081519050620007748162000de4565b92915050565b6000602082840312156200078d57600080fd5b60006200079d8482850162000763565b91505092915050565b620007b18162000a79565b82525050565b6000620007c482620009e4565b620007d08185620009fa565b9350620007e281856020860162000ae3565b620007ed8162000c37565b840191505092915050565b60006200080582620009ef565b62000811818562000a0b565b93506200082381856020860162000ae3565b6200082e8162000c37565b840191505092915050565b60006200084860348362000a0b565b9150620008558262000c55565b604082019050919050565b60006200086f60288362000a0b565b91506200087c8262000ca4565b604082019050919050565b60006200089660218362000a0b565b9150620008a38262000cf3565b604082019050919050565b620008b98162000ad9565b82525050565b600060a082019050620008d66000830188620007a6565b620008e56020830187620007a6565b620008f46040830186620008ae565b620009036060830185620008ae565b8181036080830152620009178184620007b7565b90509695505050505050565b600060208201905081810360008301526200093f8184620007f8565b905092915050565b60006020820190508181036000830152620009628162000839565b9050919050565b60006020820190508181036000830152620009848162000860565b9050919050565b60006020820190508181036000830152620009a68162000887565b9050919050565b6000604082019050620009c46000830185620008ae565b620009d36020830184620008ae565b9392505050565b6000604051905090565b600081519050919050565b600081519050919050565b600082825260208201905092915050565b600082825260208201905092915050565b600062000a298262000ad9565b915062000a368362000ad9565b9250827fffffffffffffffffffffffffffffffffffffffffffffffffffffffffffffffff0382111562000a6e5762000a6d62000b85565b5b828201905092915050565b600062000a868262000ab9565b9050919050565b60007fffffffff0000000000000000000000000000000000000000000000000000000082169050919050565b600073ffffffffffffffffffffffffffffffffffffffff82169050919050565b6000819050919050565b60005b8381101562000b0357808201518184015260208101905062000ae6565b8381111562000b13576000848401525b50505050565b6000600282049050600182168062000b3257607f821691505b6020821081141562000b495762000b4862000bb4565b5b50919050565b62000b5a8262000c37565b810181811067ffffffffffffffff8211171562000b7c5762000b7b62000be3565b5b80604052505050565b7f4e487b7100000000000000000000000000000000000000000000000000000000600052601160045260246000fd5b7f4e487b7100000000000000000000000000000000000000000000000000000000600052602260045260246000fd5b7f4e487b7100000000000000000000000000000000000000000000000000000000600052604160045260246000fd5b600060033d111562000c345760046000803e62000c3160005162000c48565b90505b90565b6000601f19601f8301169050919050565b60008160e01c9050919050565b7f455243313135353a207472616e7366657220746f206e6f6e204552433131353560008201527f526563656976657220696d706c656d656e746572000000000000000000000000602082015250565b7f455243313135353a204552433131353552656365697665722072656a6563746560008201527f6420746f6b656e73000000000000000000000000000000000000000000000000602082015250565b7f455243313135353a206d696e7420746f20746865207a65726f2061646472657360008201527f7300000000000000000000000000000000000000000000000000000000000000602082015250565b600060443d101562000d545762000de1565b62000d5e620009da565b60043d036004823e80513d602482011167ffffffffffffffff8211171562000d8857505062000de1565b808201805167ffffffffffffffff81111562000da8575050505062000de1565b80602083010160043d03850181111562000dc757505050505062000de1565b62000dd88260200185018662000b4f565b82955050505050505b90565b62000def8162000a8d565b811462000dfb57600080fd5b50565b613b348062000e0e6000396000f3fe6080604052600436106101015760003560e01c80633ccfd60b1161009557806391b7f5ed1161006457806391b7f5ed14610319578063a22cb46514610342578063e985e9c51461036b578063f242432a146103a8578063f2fde38b146103d157610108565b80633ccfd60b146102835780634e1273f41461029a578063715018a6146102d75780638da5cb5b146102ee57610108565b806319ff1d21116100d157806319ff1d21146101ea5780631b2ef1ca146102155780631f7fdffa146102315780632eb2c2d61461025a57610108565b8062fdd58e1461010a57806301ffc9a71461014757806302fe5305146101845780630e89341c146101ad57610108565b3661010857005b005b34801561011657600080fd5b50610131600480360381019061012c9190612748565b6103fa565b60405161013e9190613048565b60405180910390f35b34801561015357600080fd5b5061016e600480360381019061016991906127f0565b6104c3565b60405161017b9190612e2b565b60405180910390f35b34801561019057600080fd5b506101ab60048036038101906101a69190612842565b6105a5565b005b3480156101b957600080fd5b506101d460048036038101906101cf9190612883565b61062d565b6040516101e19190612e46565b60405180910390f35b3480156101f657600080fd5b506101ff61065e565b60405161020c9190612e46565b60405180910390f35b61022f600480360381019061022a91906128ac565b61069b565b005b34801561023d57600080fd5b5061025860048036038101906102539190612661565b6106c9565b005b34801561026657600080fd5b50610281600480360381019061027c9190612513565b610757565b005b34801561028f57600080fd5b506102986107f8565b005b3480156102a657600080fd5b506102c160048036038101906102bc9190612784565b61096d565b6040516102ce9190612dd2565b60405180910390f35b3480156102e357600080fd5b506102ec610b1e565b005b3480156102fa57600080fd5b50610303610ba6565b6040516103109190612cf5565b60405180910390f35b34801561032557600080fd5b50610340600480360381019061033b9190612883565b610bd0565b005b34801561034e57600080fd5b506103696004803603810190610364919061270c565b610c56565b005b34801561037757600080fd5b50610392600480360381019061038d91906124d7565b610c6c565b60405161039f9190612e2b565b60405180910390f35b3480156103b457600080fd5b506103cf60048036038101906103ca91906125d2565b610d00565b005b3480156103dd57600080fd5b506103f860048036038101906103f391906124ae565b610da1565b005b60008073ffffffffffffffffffffffffffffffffffffffff168373ffffffffffffffffffffffffffffffffffffffff16141561046b576040517f08c379a000000000000000000000000000000000000000000000000000000000815260040161046290612ea8565b60405180910390fd5b60008083815260200190815260200160002060008473ffffffffffffffffffffffffffffffffffffffff1673ffffffffffffffffffffffffffffffffffffffff16815260200190815260200160002054905092915050565b60007fd9b67a26000000000000000000000000000000000000000000000000000000007bffffffffffffffffffffffffffffffffffffffffffffffffffffffff1916827bffffffffffffffffffffffffffffffffffffffffffffffffffffffff1916148061058e57507f0e89341c000000000000000000000000000000000000000000000000000000007bffffffffffffffffffffffffffffffffffffffffffffffffffffffff1916827bffffffffffffffffffffffffffffffffffffffffffffffffffffffff1916145b8061059e575061059d82610ebc565b5b9050919050565b6105ad610f26565b73ffffffffffffffffffffffffffffffffffffffff166105cb610ba6565b73ffffffffffffffffffffffffffffffffffffffff1614610621576040517f08c379a000000000000000000000000000000000000000000000000000000000815260040161061890612fa8565b60405180910390fd5b61062a81610f2e565b50565b606061063882610f48565b6040516020016106489190612cb3565b6040516020818303038152906040529050919050565b60606040518060400160405280600b81526020017f68656c6c6f20776f726c64000000000000000000000000000000000000000000815250905090565b6004543410156106aa57600080fd5b6106c5338383604051806020016040528060008152506110f5565b5050565b6106d1610f26565b73ffffffffffffffffffffffffffffffffffffffff166106ef610ba6565b73ffffffffffffffffffffffffffffffffffffffff1614610745576040517f08c379a000000000000000000000000000000000000000000000000000000000815260040161073c90612fa8565b60405180910390fd5b6107518484848461128b565b50505050565b61075f610f26565b73ffffffffffffffffffffffffffffffffffffffff168573ffffffffffffffffffffffffffffffffffffffff1614806107a557506107a48561079f610f26565b610c6c565b5b6107e4576040517f08c379a00000000000000000000000000000000000000000000000000000000081526004016107db90612f48565b60405180910390fd5b6107f185858585856114f5565b5050505050565b610800610f26565b73ffffffffffffffffffffffffffffffffffffffff1661081e610ba6565b73ffffffffffffffffffffffffffffffffffffffff1614610874576040517f08c379a000000000000000000000000000000000000000000000000000000000815260040161086b90612fa8565b60405180910390fd5b600047116108b7576040517f08c379a00000000000000000000000000000000000000000000000000000000081526004016108ae90612f88565b60405180910390fd5b60006108c1610ba6565b73ffffffffffffffffffffffffffffffffffffffff16476040516108e490612ce0565b60006040518083038185875af1925050503d8060008114610921576040519150601f19603f3d011682016040523d82523d6000602084013e610926565b606091505b505090508061096a576040517f08c379a000000000000000000000000000000000000000000000000000000000815260040161096190612f08565b60405180910390fd5b50565b606081518351146109b3576040517f08c379a00000000000000000000000000000000000000000000000000000000081526004016109aa90612fe8565b60405180910390fd5b6000835167ffffffffffffffff8111156109f6577f4e487b7100000000000000000000000000000000000000000000000000000000600052604160045260246000fd5b604051908082528060200260200182016040528015610a245781602001602082028036833780820191505090505b50905060005b8451811015610b1357610abd858281518110610a6f577f4e487b7100000000000000000000000000000000000000000000000000000000600052603260045260246000fd5b6020026020010151858381518110610ab0577f4e487b7100000000000000000000000000000000000000000000000000000000600052603260045260246000fd5b60200260200101516103fa565b828281518110610af6577f4e487b7100000000000000000000000000000000000000000000000000000000600052603260045260246000fd5b60200260200101818152505080610b0c906133c6565b9050610a2a565b508091505092915050565b610b26610f26565b73ffffffffffffffffffffffffffffffffffffffff16610b44610ba6565b73ffffffffffffffffffffffffffffffffffffffff1614610b9a576040517f08c379a0000000000000000000000000000000000000000000000000000000008152600401610b9190612fa8565b60405180910390fd5b610ba46000611855565b565b6000600360009054906101000a900473ffffffffffffffffffffffffffffffffffffffff16905090565b610bd8610f26565b73ffffffffffffffffffffffffffffffffffffffff16610bf6610ba6565b73ffffffffffffffffffffffffffffffffffffffff1614610c4c576040517f08c379a0000000000000000000000000000000000000000000000000000000008152600401610c4390612fa8565b60405180910390fd5b8060048190555050565b610c68610c61610f26565b838361191b565b5050565b6000600160008473ffffffffffffffffffffffffffffffffffffffff1673ffffffffffffffffffffffffffffffffffffffff16815260200190815260200160002060008373ffffffffffffffffffffffffffffffffffffffff1673ffffffffffffffffffffffffffffffffffffffff16815260200190815260200160002060009054906101000a900460ff16905092915050565b610d08610f26565b73ffffffffffffffffffffffffffffffffffffffff168573ffffffffffffffffffffffffffffffffffffffff161480610d4e5750610d4d85610d48610f26565b610c6c565b5b610d8d576040517f08c379a0000000000000000000000000000000000000000000000000000000008152600401610d8490612ee8565b60405180910390fd5b610d9a8585858585611a88565b5050505050565b610da9610f26565b73ffffffffffffffffffffffffffffffffffffffff16610dc7610ba6565b73ffffffffffffffffffffffffffffffffffffffff1614610e1d576040517f08c379a0000000000000000000000000000000000000000000000000000000008152600401610e1490612fa8565b60405180910390fd5b600073ffffffffffffffffffffffffffffffffffffffff168173ffffffffffffffffffffffffffffffffffffffff161415610e8d576040517f08c379a0000000000000000000000000000000000000000000000000000000008152600401610e8490612ec8565b60405180910390fd5b610e9681611855565b50565b6000808273ffffffffffffffffffffffffffffffffffffffff163b119050919050565b60007f01ffc9a7000000000000000000000000000000000000000000000000000000007bffffffffffffffffffffffffffffffffffffffffffffffffffffffff1916827bffffffffffffffffffffffffffffffffffffffffffffffffffffffff1916149050919050565b600033905090565b8060029080519060200190610f449291906121a6565b5050565b60606000821415610f90576040518060400160405280600181526020017f300000000000000000000000000000000000000000000000000000000000000081525090506110f0565b600082905060005b60008214610fc2578080610fab906133c6565b915050600a82610fbb9190613248565b9150610f98565b60008167ffffffffffffffff811115611004577f4e487b7100000000000000000000000000000000000000000000000000000000600052604160045260246000fd5b6040519080825280601f01601f1916602001820160405280156110365781602001600182028036833780820191505090505b5090505b600085146110e95760018261104f9190613279565b9150600a8561105e919061340f565b603061106a91906131f2565b60f81b8183815181106110a6577f4e487b7100000000000000000000000000000000000000000000000000000000600052603260045260246000fd5b60200101907effffffffffffffffffffffffffffffffffffffffffffffffffffffffffffff1916908160001a905350600a856110e29190613248565b945061103a565b8093505050505b919050565b600073ffffffffffffffffffffffffffffffffffffffff168473ffffffffffffffffffffffffffffffffffffffff161415611165576040517f08c379a000000000000000000000000000000000000000000000000000000000815260040161115c90613028565b60405180910390fd5b600061116f610f26565b90506111908160008761118188611d0a565b61118a88611d0a565b87611dd0565b8260008086815260200190815260200160002060008773ffffffffffffffffffffffffffffffffffffffff1673ffffffffffffffffffffffffffffffffffffffff16815260200190815260200160002060008282546111ef91906131f2565b925050819055508473ffffffffffffffffffffffffffffffffffffffff16600073ffffffffffffffffffffffffffffffffffffffff168273ffffffffffffffffffffffffffffffffffffffff167fc3d58168c5ae7397731d063d5bbf3d657854427343f4c083240f7aacaa2d0f62878760405161126d929190613063565b60405180910390a461128481600087878787611dd8565b5050505050565b600073ffffffffffffffffffffffffffffffffffffffff168473ffffffffffffffffffffffffffffffffffffffff1614156112fb576040517f08c379a00000000000000000000000000000000000000000000000000000000081526004016112f290613028565b60405180910390fd5b815183511461133f576040517f08c379a000000000000000000000000000000000000000000000000000000000815260040161133690613008565b60405180910390fd5b6000611349610f26565b905061135a81600087878787611dd0565b60005b845181101561145f5783818151811061139f577f4e487b7100000000000000000000000000000000000000000000000000000000600052603260045260246000fd5b60200260200101516000808784815181106113e3577f4e487b7100000000000000000000000000000000000000000000000000000000600052603260045260246000fd5b6020026020010151815260200190815260200160002060008873ffffffffffffffffffffffffffffffffffffffff1673ffffffffffffffffffffffffffffffffffffffff168152602001908152602001600020600082825461144591906131f2565b925050819055508080611457906133c6565b91505061135d565b508473ffffffffffffffffffffffffffffffffffffffff16600073ffffffffffffffffffffffffffffffffffffffff168273ffffffffffffffffffffffffffffffffffffffff167f4a39dc06d4c0dbc64b70af90fd698a233a518aa5d07e595d983b8c0526c8f7fb87876040516114d7929190612df4565b60405180910390a46114ee81600087878787611fbf565b5050505050565b8151835114611539576040517f08c379a000000000000000000000000000000000000000000000000000000000815260040161153090613008565b60405180910390fd5b600073ffffffffffffffffffffffffffffffffffffffff168473ffffffffffffffffffffffffffffffffffffffff1614156115a9576040517f08c379a00000000000000000000000000000000000000000000000000000000081526004016115a090612f28565b60405180910390fd5b60006115b3610f26565b90506115c3818787878787611dd0565b60005b84518110156117c057600085828151811061160a577f4e487b7100000000000000000000000000000000000000000000000000000000600052603260045260246000fd5b60200260200101519050600085838151811061164f577f4e487b7100000000000000000000000000000000000000000000000000000000600052603260045260246000fd5b60200260200101519050600080600084815260200190815260200160002060008b73ffffffffffffffffffffffffffffffffffffffff1673ffffffffffffffffffffffffffffffffffffffff168152602001908152602001600020549050818110156116f0576040517f08c379a00000000000000000000000000000000000000000000000000000000081526004016116e790612f68565b60405180910390fd5b81810360008085815260200190815260200160002060008c73ffffffffffffffffffffffffffffffffffffffff1673ffffffffffffffffffffffffffffffffffffffff168152602001908152602001600020819055508160008085815260200190815260200160002060008b73ffffffffffffffffffffffffffffffffffffffff1673ffffffffffffffffffffffffffffffffffffffff16815260200190815260200160002060008282546117a591906131f2565b92505081905550505050806117b9906133c6565b90506115c6565b508473ffffffffffffffffffffffffffffffffffffffff168673ffffffffffffffffffffffffffffffffffffffff168273ffffffffffffffffffffffffffffffffffffffff167f4a39dc06d4c0dbc64b70af90fd698a233a518aa5d07e595d983b8c0526c8f7fb8787604051611837929190612df4565b60405180910390a461184d818787878787611fbf565b505050505050565b6000600360009054906101000a900473ffffffffffffffffffffffffffffffffffffffff16905081600360006101000a81548173ffffffffffffffffffffffffffffffffffffffff021916908373ffffffffffffffffffffffffffffffffffffffff1602179055508173ffffffffffffffffffffffffffffffffffffffff168173ffffffffffffffffffffffffffffffffffffffff167f8be0079c531659141344cd1fd0a4f28419497f9722a3daafe3b4186f6b6457e060405160405180910390a35050565b8173ffffffffffffffffffffffffffffffffffffffff168373ffffffffffffffffffffffffffffffffffffffff16141561198a576040517f08c379a000000000000000000000000000000000000000000000000000000000815260040161198190612fc8565b60405180910390fd5b80600160008573ffffffffffffffffffffffffffffffffffffffff1673ffffffffffffffffffffffffffffffffffffffff16815260200190815260200160002060008473ffffffffffffffffffffffffffffffffffffffff1673ffffffffffffffffffffffffffffffffffffffff16815260200190815260200160002060006101000a81548160ff0219169083151502179055508173ffffffffffffffffffffffffffffffffffffffff168373ffffffffffffffffffffffffffffffffffffffff167f17307eab39ab6107e8899845ad3d59bd9653f200f220920489ca2b5937696c3183604051611a7b9190612e2b565b60405180910390a3505050565b600073ffffffffffffffffffffffffffffffffffffffff168473ffffffffffffffffffffffffffffffffffffffff161415611af8576040517f08c379a0000000000000000000000000000000000000000000000000000000008152600401611aef90612f28565b60405180910390fd5b6000611b02610f26565b9050611b22818787611b1388611d0a565b611b1c88611d0a565b87611dd0565b600080600086815260200190815260200160002060008873ffffffffffffffffffffffffffffffffffffffff1673ffffffffffffffffffffffffffffffffffffffff16815260200190815260200160002054905083811015611bb9576040517f08c379a0000000000000000000000000000000000000000000000000000000008152600401611bb090612f68565b60405180910390fd5b83810360008087815260200190815260200160002060008973ffffffffffffffffffffffffffffffffffffffff1673ffffffffffffffffffffffffffffffffffffffff168152602001908152602001600020819055508360008087815260200190815260200160002060008873ffffffffffffffffffffffffffffffffffffffff1673ffffffffffffffffffffffffffffffffffffffff1681526020019081526020016000206000828254611c6e91906131f2565b925050819055508573ffffffffffffffffffffffffffffffffffffffff168773ffffffffffffffffffffffffffffffffffffffff168373ffffffffffffffffffffffffffffffffffffffff167fc3d58168c5ae7397731d063d5bbf3d657854427343f4c083240f7aacaa2d0f628888604051611ceb929190613063565b60405180910390a4611d01828888888888611dd8565b50505050505050565b60606000600167ffffffffffffffff811115611d4f577f4e487b7100000000000000000000000000000000000000000000000000000000600052604160045260246000fd5b604051908082528060200260200182016040528015611d7d5781602001602082028036833780820191505090505b5090508281600081518110611dbb577f4e487b7100000000000000000000000000000000000000000000000000000000600052603260045260246000fd5b60200260200101818152505080915050919050565b505050505050565b611df78473ffffffffffffffffffffffffffffffffffffffff16610e99565b15611fb7578373ffffffffffffffffffffffffffffffffffffffff1663f23a6e6187878686866040518663ffffffff1660e01b8152600401611e3d959493929190612d78565b602060405180830381600087803b158015611e5757600080fd5b505af1925050508015611e8857506040513d601f19601f82011682018060405250810190611e859190612819565b60015b611f2e57611e946134fc565b806308c379a01415611ef15750611ea9613a0c565b80611eb45750611ef3565b806040517f08c379a0000000000000000000000000000000000000000000000000000000008152600401611ee89190612e46565b60405180910390fd5b505b6040517f08c379a0000000000000000000000000000000000000000000000000000000008152600401611f2590612e68565b60405180910390fd5b63f23a6e6160e01b7bffffffffffffffffffffffffffffffffffffffffffffffffffffffff1916817bffffffffffffffffffffffffffffffffffffffffffffffffffffffff191614611fb5576040517f08c379a0000000000000000000000000000000000000000000000000000000008152600401611fac90612e88565b60405180910390fd5b505b505050505050565b611fde8473ffffffffffffffffffffffffffffffffffffffff16610e99565b1561219e578373ffffffffffffffffffffffffffffffffffffffff1663bc197c8187878686866040518663ffffffff1660e01b8152600401612024959493929190612d10565b602060405180830381600087803b15801561203e57600080fd5b505af192505050801561206f57506040513d601f19601f8201168201806040525081019061206c9190612819565b60015b6121155761207b6134fc565b806308c379a014156120d85750612090613a0c565b8061209b57506120da565b806040517f08c379a00000000000000000000000000000000000000000000000000000000081526004016120cf9190612e46565b60405180910390fd5b505b6040517f08c379a000000000000000000000000000000000000000000000000000000000815260040161210c90612e68565b60405180910390fd5b63bc197c8160e01b7bffffffffffffffffffffffffffffffffffffffffffffffffffffffff1916817bffffffffffffffffffffffffffffffffffffffffffffffffffffffff19161461219c576040517f08c379a000000000000000000000000000000000000000000000000000000000815260040161219390612e88565b60405180910390fd5b505b505050505050565b8280546121b290613363565b90600052602060002090601f0160209004810192826121d4576000855561221b565b82601f106121ed57805160ff191683800117855561221b565b8280016001018555821561221b579182015b8281111561221a5782518255916020019190600101906121ff565b5b509050612228919061222c565b5090565b5b8082111561224557600081600090555060010161222d565b5090565b600061225c612257846130b1565b61308c565b9050808382526020820190508285602086028201111561227b57600080fd5b60005b858110156122ab5781612291888261239d565b84526020840193506020830192505060018101905061227e565b5050509392505050565b60006122c86122c3846130dd565b61308c565b905080838252602082019050828560208602820111156122e757600080fd5b60005b8581101561231757816122fd8882612499565b8452602084019350602083019250506001810190506122ea565b5050509392505050565b600061233461232f84613109565b61308c565b90508281526020810184848401111561234c57600080fd5b612357848285613321565b509392505050565b600061237261236d8461313a565b61308c565b90508281526020810184848401111561238a57600080fd5b612395848285613321565b509392505050565b6000813590506123ac81613aa2565b92915050565b600082601f8301126123c357600080fd5b81356123d3848260208601612249565b91505092915050565b600082601f8301126123ed57600080fd5b81356123fd8482602086016122b5565b91505092915050565b60008135905061241581613ab9565b92915050565b60008135905061242a81613ad0565b92915050565b60008151905061243f81613ad0565b92915050565b600082601f83011261245657600080fd5b8135612466848260208601612321565b91505092915050565b600082601f83011261248057600080fd5b813561249084826020860161235f565b91505092915050565b6000813590506124a881613ae7565b92915050565b6000602082840312156124c057600080fd5b60006124ce8482850161239d565b91505092915050565b600080604083850312156124ea57600080fd5b60006124f88582860161239d565b92505060206125098582860161239d565b9150509250929050565b600080600080600060a0868803121561252b57600080fd5b60006125398882890161239d565b955050602061254a8882890161239d565b945050604086013567ffffffffffffffff81111561256757600080fd5b612573888289016123dc565b935050606086013567ffffffffffffffff81111561259057600080fd5b61259c888289016123dc565b925050608086013567ffffffffffffffff8111156125b957600080fd5b6125c588828901612445565b9150509295509295909350565b600080600080600060a086880312156125ea57600080fd5b60006125f88882890161239d565b95505060206126098882890161239d565b945050604061261a88828901612499565b935050606061262b88828901612499565b925050608086013567ffffffffffffffff81111561264857600080fd5b61265488828901612445565b9150509295509295909350565b6000806000806080858703121561267757600080fd5b60006126858782880161239d565b945050602085013567ffffffffffffffff8111156126a257600080fd5b6126ae878288016123dc565b935050604085013567ffffffffffffffff8111156126cb57600080fd5b6126d7878288016123dc565b925050606085013567ffffffffffffffff8111156126f457600080fd5b61270087828801612445565b91505092959194509250565b6000806040838503121561271f57600080fd5b600061272d8582860161239d565b925050602061273e85828601612406565b9150509250929050565b6000806040838503121561275b57600080fd5b60006127698582860161239d565b925050602061277a85828601612499565b9150509250929050565b6000806040838503121561279757600080fd5b600083013567ffffffffffffffff8111156127b157600080fd5b6127bd858286016123b2565b925050602083013567ffffffffffffffff8111156127da57600080fd5b6127e6858286016123dc565b9150509250929050565b60006020828403121561280257600080fd5b60006128108482850161241b565b91505092915050565b60006020828403121561282b57600080fd5b600061283984828501612430565b91505092915050565b60006020828403121561285457600080fd5b600082013567ffffffffffffffff81111561286e57600080fd5b61287a8482850161246f565b91505092915050565b60006020828403121561289557600080fd5b60006128a384828501612499565b91505092915050565b600080604083850312156128bf57600080fd5b60006128cd85828601612499565b92505060206128de85828601612499565b9150509250929050565b60006128f48383612c95565b60208301905092915050565b612909816132ad565b82525050565b600061291a8261317b565b61292481856131a9565b935061292f8361316b565b8060005b8381101561296057815161294788826128e8565b97506129528361319c565b925050600181019050612933565b5085935050505092915050565b612976816132bf565b82525050565b600061298782613186565b61299181856131ba565b93506129a1818560208601613330565b6129aa8161351e565b840191505092915050565b60006129c082613191565b6129ca81856131d6565b93506129da818560208601613330565b6129e38161351e565b840191505092915050565b60006129f982613191565b612a0381856131e7565b9350612a13818560208601613330565b80840191505092915050565b6000612a2c6034836131d6565b9150612a378261353c565b604082019050919050565b6000612a4f6028836131d6565b9150612a5a8261358b565b604082019050919050565b6000612a726051836131e7565b9150612a7d826135da565b605182019050919050565b6000612a95602b836131d6565b9150612aa08261364f565b604082019050919050565b6000612ab86026836131d6565b9150612ac38261369e565b604082019050919050565b6000612adb6029836131d6565b9150612ae6826136ed565b604082019050919050565b6000612afe6014836131d6565b9150612b098261373c565b602082019050919050565b6000612b216025836131d6565b9150612b2c82613765565b604082019050919050565b6000612b446032836131d6565b9150612b4f826137b4565b604082019050919050565b6000612b67602a836131d6565b9150612b7282613803565b604082019050919050565b6000612b8a600c836131d6565b9150612b9582613852565b602082019050919050565b6000612bad6005836131e7565b9150612bb88261387b565b600582019050919050565b6000612bd06020836131d6565b9150612bdb826138a4565b602082019050919050565b6000612bf36000836131cb565b9150612bfe826138cd565b600082019050919050565b6000612c166029836131d6565b9150612c21826138d0565b604082019050919050565b6000612c396029836131d6565b9150612c448261391f565b604082019050919050565b6000612c5c6028836131d6565b9150612c678261396e565b604082019050919050565b6000612c7f6021836131d6565b9150612c8a826139bd565b604082019050919050565b612c9e81613317565b82525050565b612cad81613317565b82525050565b6000612cbe82612a65565b9150612cca82846129ee565b9150612cd582612ba0565b915081905092915050565b6000612ceb82612be6565b9150819050919050565b6000602082019050612d0a6000830184612900565b92915050565b600060a082019050612d256000830188612900565b612d326020830187612900565b8181036040830152612d44818661290f565b90508181036060830152612d58818561290f565b90508181036080830152612d6c818461297c565b90509695505050505050565b600060a082019050612d8d6000830188612900565b612d9a6020830187612900565b612da76040830186612ca4565b612db46060830185612ca4565b8181036080830152612dc6818461297c565b90509695505050505050565b60006020820190508181036000830152612dec818461290f565b905092915050565b60006040820190508181036000830152612e0e818561290f565b90508181036020830152612e22818461290f565b90509392505050565b6000602082019050612e40600083018461296d565b92915050565b60006020820190508181036000830152612e6081846129b5565b905092915050565b60006020820190508181036000830152612e8181612a1f565b9050919050565b60006020820190508181036000830152612ea181612a42565b9050919050565b60006020820190508181036000830152612ec181612a88565b9050919050565b60006020820190508181036000830152612ee181612aab565b9050919050565b60006020820190508181036000830152612f0181612ace565b9050919050565b60006020820190508181036000830152612f2181612af1565b9050919050565b60006020820190508181036000830152612f4181612b14565b9050919050565b60006020820190508181036000830152612f6181612b37565b9050919050565b60006020820190508181036000830152612f8181612b5a565b9050919050565b60006020820190508181036000830152612fa181612b7d565b9050919050565b60006020820190508181036000830152612fc181612bc3565b9050919050565b60006020820190508181036000830152612fe181612c09565b9050919050565b6000602082019050818103600083015261300181612c2c565b9050919050565b6000602082019050818103600083015261302181612c4f565b9050919050565b6000602082019050818103600083015261304181612c72565b9050919050565b600060208201905061305d6000830184612ca4565b92915050565b60006040820190506130786000830185612ca4565b6130856020830184612ca4565b9392505050565b60006130966130a7565b90506130a28282613395565b919050565b6000604051905090565b600067ffffffffffffffff8211156130cc576130cb6134cd565b5b602082029050602081019050919050565b600067ffffffffffffffff8211156130f8576130f76134cd565b5b602082029050602081019050919050565b600067ffffffffffffffff821115613124576131236134cd565b5b61312d8261351e565b9050602081019050919050565b600067ffffffffffffffff821115613155576131546134cd565b5b61315e8261351e565b9050602081019050919050565b6000819050602082019050919050565b600081519050919050565b600081519050919050565b600081519050919050565b6000602082019050919050565b600082825260208201905092915050565b600082825260208201905092915050565b600081905092915050565b600082825260208201905092915050565b600081905092915050565b60006131fd82613317565b915061320883613317565b9250827fffffffffffffffffffffffffffffffffffffffffffffffffffffffffffffffff0382111561323d5761323c613440565b5b828201905092915050565b600061325382613317565b915061325e83613317565b92508261326e5761326d61346f565b5b828204905092915050565b600061328482613317565b915061328f83613317565b9250828210156132a2576132a1613440565b5b828203905092915050565b60006132b8826132f7565b9050919050565b60008115159050919050565b60007fffffffff0000000000000000000000000000000000000000000000000000000082169050919050565b600073ffffffffffffffffffffffffffffffffffffffff82169050919050565b6000819050919050565b82818337600083830152505050565b60005b8381101561334e578082015181840152602081019050613333565b8381111561335d576000848401525b50505050565b6000600282049050600182168061337b57607f821691505b6020821081141561338f5761338e61349e565b5b50919050565b61339e8261351e565b810181811067ffffffffffffffff821117156133bd576133bc6134cd565b5b80604052505050565b60006133d182613317565b91507fffffffffffffffffffffffffffffffffffffffffffffffffffffffffffffffff82141561340457613403613440565b5b600182019050919050565b600061341a82613317565b915061342583613317565b9250826134355761343461346f565b5b828206905092915050565b7f4e487b7100000000000000000000000000000000000000000000000000000000600052601160045260246000fd5b7f4e487b7100000000000000000000000000000000000000000000000000000000600052601260045260246000fd5b7f4e487b7100000000000000000000000000000000000000000000000000000000600052602260045260246000fd5b7f4e487b7100000000000000000000000000000000000000000000000000000000600052604160045260246000fd5b600060033d111561351b5760046000803e61351860005161352f565b90505b90565b6000601f19601f8301169050919050565b60008160e01c9050919050565b7f455243313135353a207472616e7366657220746f206e6f6e204552433131353560008201527f526563656976657220696d706c656d656e746572000000000000000000000000602082015250565b7f455243313135353a204552433131353552656365697665722072656a6563746560008201527f6420746f6b656e73000000000000000000000000000000000000000000000000602082015250565b7f68747470733a2f2f676174657761792e70696e6174612e636c6f75642f69706660008201527f732f516d57444b394d707a42545a6a73796f7a467266746b6b446a31686b507960208201527f334e4534525772333944436d3966345a2f000000000000000000000000000000604082015250565b7f455243313135353a2062616c616e636520717565727920666f7220746865207a60008201527f65726f2061646472657373000000000000000000000000000000000000000000602082015250565b7f4f776e61626c653a206e6577206f776e657220697320746865207a65726f206160008201527f6464726573730000000000000000000000000000000000000000000000000000602082015250565b7f455243313135353a2063616c6c6572206973206e6f74206f776e6572206e6f7260008201527f20617070726f7665640000000000000000000000000000000000000000000000602082015250565b7f4661696c656420746f2073656e64204574686572000000000000000000000000600082015250565b7f455243313135353a207472616e7366657220746f20746865207a65726f20616460008201527f6472657373000000000000000000000000000000000000000000000000000000602082015250565b7f455243313135353a207472616e736665722063616c6c6572206973206e6f742060008201527f6f776e6572206e6f7220617070726f7665640000000000000000000000000000602082015250565b7f455243313135353a20696e73756666696369656e742062616c616e636520666f60008201527f72207472616e7366657200000000000000000000000000000000000000000000602082015250565b7f42616c616e636520697320300000000000000000000000000000000000000000600082015250565b7f2e6a736f6e000000000000000000000000000000000000000000000000000000600082015250565b7f4f776e61626c653a2063616c6c6572206973206e6f7420746865206f776e6572600082015250565b50565b7f455243313135353a2073657474696e6720617070726f76616c2073746174757360008201527f20666f722073656c660000000000000000000000000000000000000000000000602082015250565b7f455243313135353a206163636f756e747320616e6420696473206c656e67746860008201527f206d69736d617463680000000000000000000000000000000000000000000000602082015250565b7f455243313135353a2069647320616e6420616d6f756e7473206c656e6774682060008201527f6d69736d61746368000000000000000000000000000000000000000000000000602082015250565b7f455243313135353a206d696e7420746f20746865207a65726f2061646472657360008201527f7300000000000000000000000000000000000000000000000000000000000000602082015250565b600060443d1015613a1c57613a9f565b613a246130a7565b60043d036004823e80513d602482011167ffffffffffffffff82111715613a4c575050613a9f565b808201805167ffffffffffffffff811115613a6a5750505050613a9f565b80602083010160043d038501811115613a87575050505050613a9f565b613a9682602001850186613395565b82955050505050505b90565b613aab816132ad565b8114613ab657600080fd5b50565b613ac2816132bf565b8114613acd57600080fd5b50565b613ad9816132cb565b8114613ae457600080fd5b50565b613af081613317565b8114613afb57600080fd5b5056fea2646970667358221220e53613a8ad38e5250a2ea9c88a3478e0a2b16f3bd361c99f8c23825044402a6c64736f6c6343000804003368747470733a2f2f676174657761792e70696e6174612e636c6f75642f697066732f516d57444b394d707a42545a6a73796f7a467266746b6b446a31686b5079334e4534525772333944436d3966345a2f7b69647d2e6a736f6e",
  "linkReferences": {},
  "deployedLinkReferences": {}
}